:100000000C9463000C948B000C948B000C94A00453
:100010000C94A0040C94A0040C948B000C948B0002
:100020000C948B000C948B000C948B000C948B0024
:100030000C948B000C948B000C948B000C948B0014
:100040000C94FE030C948B000C946E040C944804E6
:100050000C948B000C948B000C948B000C948B00F4
:100060000C948B000C948B000000000024002700EF
:100070002A0000000008000201000003040700003D
:1000800000000000000000000000250028002B00F8
:1000900000000000230026002900040404040404D6
:1000A0000404020202020202030303030303010227
:1000B00004081020408001020408102001020408F6
:1000C00010201A05280711241FBECFEFD8E0DEBF8D
:1000D000CDBF11E0A0E0B1E0E4EEFEE002C005908B
:1000E0000D92A432B107D9F722E0A4E2B1E001C039
:1000F0001D92A233B207E1F710E0C2E6D0E004C0DF
:100100002197FE010E945A07C136D107C9F70E9404
:10011000C5050C9465070C940000CF92DF92EF9216
:10012000FF920F931F93CF93DF936C017A018B01A2
:10013000C0E0D0E0CE15DF0589F0D8016D918D01CA
:10014000D601ED91FC910190F081E02DC601099559
:10015000892B11F47E0102C02196ECCFC701DF91FB
:10016000CF911F910F91FF90EF90DF90CF90089566
:10017000FC01538D448D252F30E0842F90E0821BAD
:10018000930B541710F0CF96089501970895FC0132
:10019000918D828D981761F0828DDF01A80FB11DBE
:1001A0005D968C91928D9F5F9F73928F90E00895E2
:1001B0008FEF9FEF0895FC01918D828D981731F09C
:1001C000828DE80FF11D858D90E008958FEF9FEFF0
:1001D0000895FC01918D228D892F90E0805C9F4FC6
:1001E000821B91098F739927089586E791E00E94F9
:1001F000E90021E0892B09F420E0822F0895FC0119
:10020000848DDF01A80FB11DA35ABF4F2C91848D9F
:1002100090E001968F739927848FA689B7892C93D4
:10022000A089B1898C9180648C93938D848D98136F
:1002300006C00288F389E02D80818F7D8083089538
:10024000EF92FF920F931F93CF93DF93EC0181E026
:10025000888F9B8D8C8D981305C0E889F9898081E2
:1002600085FD24C0F62E0B8D10E00F5F1F4F0F731E
:100270001127E02E8C8DE8120CC00FB607FCFACFC8
:10028000E889F989808185FFF5CFCE010E94FF00C2
:10029000F1CF8B8DFE01E80FF11DE35AFF4FF08285
:1002A0000B8FEA89FB898081806207C0EE89FF8914
:1002B0006083E889F98980818064808381E090E0AF
:1002C000DF91CF911F910F91FF90EF900895CF9301
:1002D000DF93EC01888D8823C9F0EA89FB8980814E
:1002E00085FD05C0A889B9898C9186FD0FC00FB620
:1002F00007FCF5CF808185FFF2CFA889B9898C9161
:1003000085FFEDCFCE010E94FF00E7CFDF91CF91B7
:10031000089580E090E0892B29F00E94F50081117A
:100320000C940000089590E0FC01EE58FF4F3491CA
:10033000FC01E255FF4F2491FC01E656FF4FE4918A
:10034000EE2309F43BC0332339F1333091F038F414
:100350003130A9F0323001F584B58F7D12C03730CD
:1003600091F03830A1F03430B9F4809180008F7D65
:1003700003C0809180008F77809380000DC084B58A
:100380008F7784BD09C08091B0008F7703C08091C2
:10039000B0008F7D8093B000F0E0EE0FFF1FEA57B2
:1003A000FF4FA591B4918FB7F894EC91611103C000
:1003B00020952E2301C02E2B2C938FBF0895CF9311
:1003C000DF9390E0FC01E255FF4F2491FC01E656DB
:1003D000FF4F8491882361F190E0880F991FFC0101
:1003E000E859FF4FC591D491FC01EA57FF4FA59101
:1003F000B491611109C09FB7F89488812095822338
:100400008883EC912E230BC0623061F49FB7F8947F
:100410003881822F809583238883EC912E2B2C9317
:100420009FBF06C08FB7F894E8812E2B28838FBF1B
:10043000DF91CF9108951F93CF93DF93182FEB0196
:1004400061E00E94DF01209711F460E004C0CF3F1B
:10045000D10539F461E0812FDF91CF911F910C9488
:100460009301E12FF0E0EE58FF4FE491E330F9F013
:1004700048F4E130B9F0E230A1F584B5806284BD82
:10048000C8BD34C0E730E9F0E83019F1E43049F58F
:1004900080918000806280938000D0938B00C09315
:1004A0008A0024C084B5806884BDC7BD1FC0809108
:1004B0008000806880938000D0938900C09388007A
:1004C00015C08091B00080688093B000C093B300E5
:1004D0000DC08091B00080628093B000C093B400E2
:1004E00005C0C038D1050CF0B5CFAFCFDF91CF91AB
:1004F0001F910895209166013091670128173907EF
:1005000071F49091640180916501981741F0E09138
:100510006401F0E0EC5DFE4F808190E008958FEF84
:100520009FEF089508951F93CF93DF93DC015C96AE
:100530002D913C915D972115310539F481E090E0D2
:1005400013969C938E9312973DC05196ED91FC911A
:10055000529750969C915097892F80951FB75E9621
:100560004C915E9741FB772770F941FD6095F894B7
:100570004081772311F0492B01C048234083E901D2
:100580002197F1F748E0508160FF02C0592B01C06C
:1005900058235083E9012197F1F76695415099F767
:1005A000772321F090818923808303C08081982B59
:1005B00090831FBF5C968D919C915D970197F1F799
:1005C00021E030E0C901DF91CF911F910895209182
:1005D0006601309167012817390771F48091650130
:1005E0002091640190E0805C9F4F821B910960E440
:1005F00070E00E943207089580E090E00895209115
:1006000066013091670128173907B9F490916401A8
:1006100080916501981789F0E0916401F0E0EC5D4C
:10062000FE4F80812091640130E02F5F3F4F2F7398
:1006300033272093640190E008958FEF9FEF089592
:10064000E0916601F0916701E817F90769F4A38961
:10065000B4899C918589809589238C931092670138
:100660001092660181E0089580E00895089580E089
:1006700090E00895813009F44BC01CF581118AC0C7
:1006800060E074E08EE00E941B0260E070E08FE0AA
:100690000E941B0260E074E080E10E941B0260E0A7
:1006A00070E081E10E941B0260E074E082E10E9440
:1006B0001B0260E070E083E10E941B0260E074E0D6
:1006C00089C0823009F440C0833009F063C060E023
:1006D00074E08EE00E941B0260E074E08FE00E94F4
:1006E0001B0260E074E080E10E941B0260E074E0A5
:1006F00081E10E941B0260E074E082E10E941B0223
:1007000060E074E083E10E941B0260E074E03CC0A2
:1007100060E070E08EE00E941B0260E074E08FE019
:100720000E941B0260E070E080E10E941B0260E01A
:1007300074E081E10E941B0260E070E082E10E94AF
:100740001B0260E074E01BC060E074E08EE00E9479
:100750001B0260E070E08FE00E941B0260E070E02E
:1007600080E10E941B0260E074E081E10E941B02B4
:1007700060E074E082E10E941B0260E070E083E1CF
:100780000E941B0260E070E084E10E941B0260E0B6
:1007900074E025C060E070E08EE00E941B0260E023
:1007A00070E08FE00E941B0260E070E080E10E9438
:1007B0001B0260E070E081E10E941B0260E070E0DB
:1007C00082E10E941B0260E070E083E10E941B0254
:1007D00060E070E084E10E941B0260E070E085E16F
:1007E0000C941B021092690160E08BE00E9493015F
:1007F00060E08CE00C9493010E9460071F920F92BE
:100800000FB60F9211242F933F938F939F93AF9323
:10081000BF938091720190917301A0917401B09186
:1008200075013091710123E0230F2D3720F40196DB
:10083000A11DB11D05C026E8230F0296A11DB11D03
:10084000209371018093720190937301A0937401BE
:10085000B093750180916D0190916E01A0916F012F
:10086000B09170010196A11DB11D80936D0190930F
:100870006E01A0936F01B0937001BF91AF919F91F2
:100880008F913F912F910F900FBE0F901F90189551
:100890001F920F920FB60F9211242F933F934F93F5
:1008A0005F936F937F938F939F93AF93BF93EF93D8
:1008B000FF9386E791E00E94FF00FF91EF91BF91C7
:1008C000AF919F918F917F916F915F914F913F91E8
:1008D0002F910F900FBE0F901F9018951F920F929F
:1008E0000FB60F9211242F938F939F93EF93FF9343
:1008F000E0918601F09187018081E0918C01F09177
:100900008D0182FD12C0908180918F018F5F8F7366
:1009100020919001821751F0E0918F01F0E0EA58A8
:10092000FE4F958F80938F0101C08081FF91EF91E1
:100930009F918F912F910F900FBE0F901F90189540
:100940001F920F920FB60F9211242F933F934F9344
:100950005F936F937F938F939F93AF93BF93EF9327
:10096000FF93E0916601F0916701309709F451C05F
:10097000968DA685B785858591FF04C09C918923B6
:1009800029F447C09C91892309F043C0A389B48905
:100990009C918589809589238C9386899789019775
:1009A000F1F7608D718DA685B785558538E020E01B
:1009B000CB010197F1F7822F90E095958795282F2D
:1009C0004C91452309F02068315091F7868D81FDC7
:1009D00020958091650190E001968F739927309161
:1009E0006401381749F0A0916501B0E0AC5DBE4FDD
:1009F0002C938093650103C0868D8160868F828DE4
:100A0000938D0197F1F7A389B4899C918589892BEE
:100A10008C93FF91EF91BF91AF919F918F917F91B7
:100A20006F915F914F913F912F910F900FBE0F905B
:100A30001F901895109279011092780188EE93E03A
:100A4000A0E0B0E080937A0190937B01A0937C01B9
:100A5000B0937D0124E031E030937701209376015B
:100A600025EC30E0309383012093820124EC30E0C8
:100A7000309385012093840120EC30E0309387018E
:100A80002093860121EC30E0309389012093880186
:100A900022EC30E030938B0120938A0126EC30E089
:100AA00030938D0120938C0110928F011092900150
:100AB000109291011092920110921602109215025A
:100AC0008093170290931802A0931902B0931A0210
:100AD00086E191E0909314028093130210922A020F
:100AE0001092290210922C0210922B0210922E02C8
:100AF00010922D021092300210922F02609131025A
:100B00006E7F6D7F609331026695617081E068272A
:100B100083E00E94930161E083E00E94DF01E1EB4A
:100B2000F0E0E491E0932302EDE9F0E0E491F0E0FD
:100B3000EE0FFF1FEA57FF4F859194919093250286
:100B40008093240260E082E00E94DF018091310204
:100B500081FD04C061E082E00E94930182E0809305
:100B60001F02E0EBF0E0E491E0932002ECE9F0E01A
:100B7000E491F0E0EE0FFF1FE057FF4F8591949155
:100B800090932202809321020895789484B5826024
:100B900084BD84B5816084BD85B5826085BD85B521
:100BA000816085BD80916E00816080936E0010929F
:100BB000810080918100826080938100809181001A
:100BC00081608093810080918000816080938000AB
:100BD0008091B10084608093B1008091B000816009
:100BE0008093B00080917A00846080937A00809135
:100BF0007A00826080937A0080917A00816080938D
:100C00007A0080917A00806880937A001092C10007
:100C100061E085E00E94DF0161E08BE00E94DF017E
:100C200061E08CE00E94DF0161E086E00E94DF016C
:100C300061E08AE00E94DF0161E089E00E94DF015B
:100C40000E94F2031092680160E085E00E94930127
:100C500080E00E943A0310922E0210922D02109210
:100C60002C0210922B0210922A02109229028DE976
:100C700091E09093300280932F0290911F02963161
:100C800008F057C02DEB30E030932A022093290260
:100C90002BE931E030932C0220932B022CE231E03F
:100CA00030932E0220932D0220916800983050F04E
:100CB00031E09E3008F430E081E001C0880F3A95C1
:100CC000EAF701C084E0822B80936800983038F006
:100CD0009E3040F0963148F020E030E008C02DE62C
:100CE00030E005C02BE630E002C02CE630E0309367
:100CF000270220932602983030F481E001C0880F4B
:100D00009A95EAF70EC0292F30E09E3018F428504B
:100D1000310902C02E50310981E001C0880F2A95A7
:100D2000EAF78093280280912F0290913002019778
:100D3000F1F780912D0290912E02892B21F1809163
:100D400066019091670122E083319207E1F00097FC
:100D500011F00E942003809131028E7F8093310236
:100D6000109265011092640183E192E09093670113
:100D700080936601E0912602F09127029081809194
:100D80002802892B8083E0918601F091870182E01F
:100D90008083E0918201F09183011082E0918401CF
:100DA000F09185018FEC808310928E01E0918A0191
:100DB000F0918B0186E08083E0918801F0918901B8
:100DC000808180618083E0918801F0918901808138
:100DD00088608083E0918801F0918901808180683A
:100DE0008083E0918801F091890180818F7D8083EB
:100DF00083E192E00E94E702892B39F183E192E0DE
:100E00000E94FF02282F2C6030E0359527953595FC
:100E1000279520936C01C82FC360C0936B01806E2F
:100E200080936A01233051F480916901882331F065
:100E30001092680160E085E00E949301C33029F4BC
:100E40008091680181110E94F2030E948901D0CF34
:100E500086E191E0909314028093130283E192E083
:100E60000C94200397FB072E16F4009407D077FD0F
:100E700009D00E94460707FC05D03EF49095819565
:100E80009F4F0895709561957F4F0895AA1BBB1BD6
:100E900051E107C0AA1FBB1FA617B70710F0A61B7A
:100EA000B70B881F991F5A95A9F780959095BC019B
:100EB000CD010895EE0FFF1F0590F491E02D0994E8
:100EC00081E090E0F8940C94650710E0C2E6D0E071
:100ED00004C0FE010E945A072196C336D107C9F704
:040EE000F894FFCFB4
:100EE4000000000020018D00B8006701E900C70080
:100EF400DB000000000093028D0037039202E7023A
:040F0400FF027A026C
:107E0000112484B714BE81FFF0D085E080938100F7
:107E100082E08093C00088E18093C10086E0809377
:107E2000C20080E18093C4008EE0C9D0259A86E02C
:107E300020E33CEF91E0309385002093840096BBD3
:107E4000B09BFECF1D9AA8958150A9F7CC24DD24C4
:107E500088248394B5E0AB2EA1E19A2EF3E0BF2EE7
:107E6000A2D0813461F49FD0082FAFD0023811F036
:107E7000013811F484E001C083E08DD089C08234E0
:107E800011F484E103C0853419F485E0A6D080C0E4
:107E9000853579F488D0E82EFF2485D0082F10E0AE
:107EA000102F00270E291F29000F111F8ED06801E7
:107EB0006FC0863521F484E090D080E0DECF843638
:107EC00009F040C070D06FD0082F6DD080E0C81688
:107ED00080E7D80618F4F601B7BEE895C0E0D1E017
:107EE00062D089930C17E1F7F0E0CF16F0E7DF06D8
:107EF00018F0F601B7BEE89568D007B600FCFDCFD4
:107F0000A601A0E0B1E02C9130E011968C91119780
:107F100090E0982F8827822B932B1296FA010C0160
:107F200087BEE89511244E5F5F4FF1E0A038BF0790
:107F300051F7F601A7BEE89507B600FCFDCF97BE46
:107F4000E89526C08437B1F42ED02DD0F82E2BD052
:107F50003CD0F601EF2C8F010F5F1F4F84911BD097
:107F6000EA94F801C1F70894C11CD11CFA94CF0C13
:107F7000D11C0EC0853739F428D08EE10CD085E9AC
:107F80000AD08FE07ACF813511F488E018D01DD067
:107F900080E101D065CF982F8091C00085FFFCCF94
:107FA0009093C60008958091C00087FFFCCF809118
:107FB000C00084FD01C0A8958091C6000895E0E648
:107FC000F0E098E1908380830895EDDF803219F02E
:107FD00088E0F5DFFFCF84E1DECF1F93182FE3DFCA
:107FE0001150E9F7F2DF1F91089580E0E8DFEE27F6
:047FF000FF270994CA
:027FFE00040479
:0400000300007E007B
:00000001FF